:100000000C9434000C9449000C9449000C94490061
:100010000C9449000C9449000C9449000C9449003C
:100020000C9449000C9449000C9449000C9449002C
:100030000C9449000C9449000C9449000C9449001C
:100040000C9449000C9449000C9449000C9449000C
:100050000C9449000C9449000C9449000C944900FC
:100060000C9449000C94490011241FBECFEFD8E036
:10007000DEBFCDBF11E0A0E0B1E0ECE7F9E002C0E7
:1000800005900D92AE32B107D9F70E94FC000C9496
:10009000BC040C9400004F925F926F927F928F92FB
:1000A0009F92AF92BF92CF92DF92EF92FF920F9307
:1000B0001F93DF93CF93CDB7DEB764970FB6F89455
:1000C000DEBF0FBECDBFCC24DD244E010894811CC1
:1000D000911C94E1492E512C80E0682E81E0782E0D
:1000E00046C08A2D6B2D402F0E9403010E944E01B5
:1000F0008DB79EB70C970FB6F8949EBF0FBE8DBFFD
:10010000EDB7FEB73196ADB7BEB712969C928E9200
:1001100011975382428275826482D782C682F186A9
:10012000E086138702870E94D7018DB79EB70C9691
:100130000FB6F8949EBF0FBE8DBFC4010E943E0152
:100140000F5F1F4F0F3F110561F60894E11CF11C72
:100150009FEFE916F10421F0BE2C00E010E0C1CFC2
:100160000894C11CD11CAFEFCA16D10421F0AC2CED
:10017000EE24FF24F1CF64960FB6F894DEBF0FBED5
:10018000CDBFCF91DF911F910F91FF90EF90DF9046
:10019000CF90BF90AF909F908F907F906F905F9027
:1001A0004F90089580E063E00E94CD0186E191E0E8
:1001B0000E943E0181E062E00E94CD018CE191E06D
:1001C0000E943E0182E061E00E94CD0182E291E066
:1001D0000E943E0183E060E00E94CD0188E291E050
:1001E0000E943E0180E098E40197F1F70E945601D9
:1001F00008950E945E0108950E945E010E94D2004F
:100200000E944B00FDCF8093B40068BD47BD0895A8
:1002100095B1937C95B995B18F70880F880F892B14
:1002200085B95C9A82E08A95F1F75C988AE78A95AD
:10023000F1F708951F93182F289A82958F700E94C6
:100240000801812F0E9408011F9108950F931F93A9
:10025000CF93DF93EC01062F10E003C00E941A0138
:100260001F5FFE01E10FF11D8081882311F010173F
:10027000A8F3DF91CF911F910F91089564E10E943F
:10028000260108951F93182F289882958F700E9439
:100290000801812F0E9408011F91089582E00E94A9
:1002A000420186E69EE00197F1F7089581E00E9401
:1002B000420186E69EE00197F1F708950F931F93A0
:1002C00084B18C6384B9509A249A84EF91E028EB2E
:1002D00030E0F9013197F1F70197D9F7589883E0A9
:1002E0000E94080100E014E2C8010197F1F783E0E1
:1002F0000E940801C8010197F1F783E00E940801FC
:100300008DED90E00197F1F783E00E94080182E013
:100310000E94080186E69EE00197F1F788E20E94BC
:1003200042018FE00E94420186E00E9442018AB1B0
:1003300088668AB98091B00083608093B000809114
:10034000B10084608093B1008091B000806280939E
:10035000B00084B5836084BD85B5836085BD84B5F8
:10036000806284BD84B5806884BD8FEF8093B400C3
:1003700088BD87BD0E9456011F910F91089582305C
:1003800041F0833041F0813011F480E4089580E041
:10039000089584E1089584E508951F93162F0E941F
:1003A000BF018068812B0E9442011F910895AEE039
:1003B000B0E0EDEDF1E00C9493040D891E898F8976
:1003C000988D97FF02C080E090E801979E838D830F
:1003D0001A83098386E08C839E01255E3F4FCE0100
:1003E0000196698D7A8DA9010E9408024D815E8176
:1003F00057FD0AC02F813885421753070CF49A0124
:10040000020F131FF80110822E96E4E00C94AF0443
:10041000ABE0B0E0EEE0F2E00C9485043C012B018F
:100420005A01FC0117821682838181FD03C06FEFA0
:100430007FEFC6C19AE0892E1E010894211C311C51
:10044000F3012381F20123FD859123FF81912F0187
:10045000882309F4B2C1853239F423FD859123FF45
:1004600081912F01853229F490E0B3010E94FB03B2
:10047000E7CF982FFF24EE249924FFE1FF15D0F059
:100480009B3269F09C3228F4903259F0933291F407
:100490000EC09D3249F0903369F441E024C052E02F
:1004A000F52A84E0F82A28C098E0F92A25C0E0E17E
:1004B000FE2A22C0F7FC29C0892F80538A3070F4AD
:1004C000F6FE05C0989C902C1124980E15C0E89C4F
:1004D000E02C1124E80EF0E2FF2A0EC09E3229F42F
:1004E000F6FC6BC140E4F42A07C09C3619F450E8CE
:1004F000F52A02C0983649F4F20123FD959123FFB5
:1005000091912F01992309F0B8CF892F8554833019
:1005100018F08052833038F444E050E0A40EB51E49
:100520005FE359830FC0933631F0933779F09335F9
:1005300009F056C020C0F5018081898342E050E077
:10054000A40EB51E610101E010E012C0F501C080EB
:10055000D180F6FC03C06FEF7FEF02C0692D70E021
:1005600042E050E0A40EB51EC6010E94F0038C01CB
:100570005FE7F52214C0F501C080D180F6FC03C00E
:100580006FEF7FEF02C0692D70E042E050E0A40EF3
:10059000B51EC6010E94E5038C0150E8F52AF3FE62
:1005A00007C01AC080E290E0B3010E94FB03EA9406
:1005B0008E2D90E008171907A8F30EC0F601F7FC7E
:1005C0008591F7FE81916F0190E0B3010E94FB03DA
:1005D000E110EA94015010400115110579F7EAC0C5
:1005E000943611F0993669F5F7FE08C0F5012081BF
:1005F00031814281538184E090E00AC0F50180811D
:1006000091819C01442737FD4095542F82E090E072
:10061000A80EB91E9FE6F92257FF09C050954095D4
:10062000309521953F4F4F4F5F4FE0E8FE2ACA01BA
:10063000B901A1012AE030E00E942704D82ED21887
:1006400040C0953729F41F2D1F7E2AE030E01DC0E1
:100650001F2D197F9F3661F0903720F4983509F0EF
:10066000ACC00FC0903739F0983709F0A6C004C06D
:1006700028E030E00AC0106114FD146020E130E091
:1006800004C014FD166020E132E017FF08C0F50138
:10069000608171818281938144E050E008C0F5015E
:1006A00080819181BC0180E090E042E050E0A40EA6
:1006B000B51EA1010E942704D82ED2188FE7F82E6C
:1006C000F122F6FE0BC05EEFF522D91438F4F4FEE9
:1006D00007C0F2FC05C08FEEF82202C01D2D01C03C
:1006E000192DF4FE0DC0FE01ED0DF11D808180334A
:1006F00019F499EEF92208C01F5FF2FE05C003C08D
:100700008F2D867809F01F5F0F2DF3FC14C0F0FECB
:100710000FC01E1510F09D2C0BC09D2C9E0C911A25
:100720001E2D06C080E290E0B3010E94FB031F5F14
:100730001E15C0F304C01E1510F4E11A01C0EE240A
:1007400004FF0FC080E390E0B3010E94FB0302FFAF
:100750001DC001FD03C088E790E00EC088E590E071
:100760000BC0802F867891F001FF02C08BE201C0A0
:1007700080E2F7FC8DE290E0B3010E94FB0306C02B
:1007800080E390E0B3010E94FB039A94D914C0F374
:10079000DA94F101ED0DF11D808190E0B3010E942A
:1007A000FB03DD20A9F706C080E290E0B3010E94C0
:1007B000FB03EA94EE20C1F743CEF3016681778113
:1007C000CB012B96E2E10C94A104FC010590615051
:1007D00070400110D8F7809590958E0F9F1F089557
:1007E000FC016150704001900110D8F78095909500
:1007F0008E0F9F1F08950F931F93CF93DF938C014C
:10080000EB018B8181FF1BC082FF0DC02E813F81D8
:100810008C819D812817390764F4E881F98101935F
:10082000F983E88306C0E885F985802F0995892B2F
:1008300031F48E819F8101969F838E8302C00FEFDA
:100840001FEFC801DF91CF911F910F910895FA0119
:10085000AA27283051F1203181F1E8946F936E7FFF
:100860006E5F7F4F8F4F9F4FAF4FB1E03ED0B4E0F0
:100870003CD0670F781F891F9A1FA11D680F791F31
:100880008A1F911DA11D6A0F711D811D911DA11D42
:1008900020D009F468943F912AE0269F1124301952
:1008A000305D3193DEF6CF010895462F4770405DED
:1008B0004193B3E00FD0C9F7F6CF462F4F70405D9C
:1008C0004A3318F0495D31FD4052419302D0A9F7F7
:1008D000EACFB4E0A6959795879577956795BA95F1
:1008E000C9F700976105710508959B01AC010A2EB7
:1008F00006945795479537952795BA95C9F7620F8E
:10090000731F841F951FA01D08952F923F924F9231
:100910005F926F927F928F929F92AF92BF92CF928F
:10092000DF92EF92FF920F931F93CF93DF93CDB798
:10093000DEB7CA1BDB0B0FB6F894DEBF0FBECDBF10
:1009400009942A88398848885F846E847D848C84E1
:100950009B84AA84B984C884DF80EE80FD800C81EA
:100960001B81AA81B981CE0FD11D0FB6F894DEBFCD
:0C0970000FBECDBFED010895F894FFCF3D
:10097C005247423A20253033642C20253033642CE6
:10098C00202530336400746573743100746573749E
:0E099C00320074657374330074657374340034
:00000001FF
